S01A00006275696C642F62746E6F6465332F6D61696E2E7372656348
S11300000C9488010C94A7010C94A7010C94A701EB
S11300100C94A7010C94A7010C94A7010C94A701BC
S11300200C94A7010C94A7010C94A7010C949C05B3
S11300300C947B050C9486050C94AD050C94F30587
S11300400C946A050C94E4090C94A7010C94A70180
S11300500C94A7010C943E080C94A7010C94A701DE
S11300600C9491050C94A7010C94A7010C94A7017E
S11300700C94A7010C94A7010C94A7010C94A7015C
S11300800C94A7010C94A7010C94A7010000211063
S1130090422063308440A550C660E77008812991EE
S11300A04AA16BB18CC1ADD1CEE1EFF13112100296
S11300B073325222B5529442F772D662399318833E
S11300C07BB35AA3BDD39CC3FFF3DEE36224433462
S11300D020040114E664C774A44485546AA54BB58E
S11300E028850995EEE5CFF5ACC58DD55336722636
S11300F011163006D776F6669556B4465BB77AA7DE
S113010019973887DFF7FEE79DD7BCC7C448E55881
S11301108668A7784008611802282338CCC9EDD92D
S11301208EE9AFF9488969990AA92BB9F55AD44AD5
S1130130B77A966A711A500A333A122AFDDBDCCB7D
S1130140BFFB9EEB799B588B3BBB1AABA66C877CA1
S1130150E44CC55C222C033C600C411CAEED8FFDCD
S1130160ECCDCDDD2AAD0BBD688D499D977EB66E75
S1130170D55EF44E133E322E511E700E9FFFBEEF1D
S1130180DDDFFCCF1BBF3AAF599F788F8891A981DF
S1130190CAB1EBA10CD12DC14EF16FE18010A100C9
S11301A0C230E3200450254046706760B9839893B9
S11301B0FBA3DAB33DC31CD37FE35EF3B102901219
S11301C0F322D2323542145277625672EAB5CBA585
S11301D0A89589856EF54FE52CD50DC5E234C32469
S11301E0A01481046674476424540544DBA7FAB759
S11301F09987B8975FE77EF71DC73CD7D326F236B9
S11302009106B01657667676154634564CD96DC9A4
S11302100EF92FE9C899E9898AB9ABA94458654808
S113022006782768C018E1088238A3287DCB5CDBF8
S11302303FEB1EFBF98BD89BBBAB9ABB754A545A58
S1130240376A167AF10AD01AB32A923A2EFD0FEDC4
S11302506CDD4DCDAABD8BADE89DC98D267C076CA8
S1130260645C454CA23C832CE01CC10C1FEF3EFF98
S11302705DCF7CDF9BAFBABFD98FF89F176E367EF8
S1130280554E745E932EB23ED10EF01E00081C181B
S11302901410ABBA83AAAA3158000057F685035547
S11302A044020F60E0261C6B557081317C00007B9A
S11302B0F9AE02388C3280401026A16B5510F33110
S11302C051000050F74F030E44020F58E026A16B73
S11302D0557081315CE0005CDB4201AA8C328030D5
S11302E01026A16B5510F3314560004555BB039CA6
S11302F080020F68E026A16B5470813158000057CA
S1130300F685035590020F60E026A16B55708100BD
S113031011241FBECFEFD0E1DEBFCDBF11E0A0E0BE
S1130320B1E0E4E4F2E300E00BBF02C007900D92F9
S1130330A033B107D9F71CE0A0E3B1E001C01D92DE
S1130340A134B107E1F70E944A150C9421190C94C9
S113035000008FB7F894992708958FBF089560918E
S11303603509709136092CB53DB506B602FE04C0B8
S11303706F5F7F4F2CB53DB588279927CB01772731
S1130380662744275527622B732B842B952B0895BE
S1130390ECE8F0E06927660FF11DE60FF11DC89542
S11303A0982F802D3196C89590250895880F95989B
S11303B090E087FF02C0979A01C097989698969A02
S11303C09F5F973011F0880FF4CF979A9698969A7A
S11303D0959A80E067FF02C0979A01C09798969813
S11303E0969A8F5F883011F0660FF4CF959A979A9A
S11303F0969A089560911B0C89E00E94D60160E0F2
S11304008BE00E94D60161E180E00E94D6018DE775
S113041090E0019701960197E1F70895282F9FB77F
S1130420F894E82FFF27E951FE4F80818F3F81F434
S1130430E0912C0CE21771F40BC02093230C04C040
S1130440FF27E951FE4F208320932C0C20E007C0A6
S113045025E005C08091230C8F3F91F7EECF892FC3
S113046099278FBF822F992708952F923F924F92F9
S11304705F926F927F928F929F92AF92BF92CF9230
S1130480DF92EF92FF920F931F93CF93DF93CDB739
S1130490DEB729970FB6F894DEBF0FBECDBF6FB796
S11304A06983F89420902A0930902B0940902C09F4
S11304B050902D09662477248824EEE4AE2E73E848
S11304C0B72ECC24DD24EE24FF2400E010E0222DFE
S11304D0332D442D552D662D772D882D90E00E94C7
S11304E004172A833B834C835D836E837F838887D1
S11304F09987822E932EA42EB52E2401350100E275
S11305000E940218A22EB32EC42ED52EA30192014E
S113051056954795379527952A0D3B1D4C1D5D1D16
S113052057FF05C05F772F5F3F4F4F4F5F4F2093BB
S11305302A0930932B0940932C0950932D09E98102
S11305408E2F99278FBFCA01B90129960FB6F89447
S1130550DEBF0FBECDBFDF91CF911F910F91FF90F2
S1130560EF90DF90CF90BF90AF909F908F907F904F
S11305706F905F904F903F902F9008958091260C3C
S1130580882319F02FE170E002C078E022E0622FA6
S1130590EFB7F8948091F5018E7F8093F50187B1D0
S11305A0982F9F71829586958695837019F080E0C7
S11305B090E012C0822F8850863118F081E090E0DC
S11305C00BC040E050E03327892F992728173907BB
S11305D011F441E050E0CA01982F9170990F809175
S11305E0F5018178262F2F71422F440F440F892B58
S11305F0842B8093F501332727B9783059F58091FE
S1130600240C9091250C21E08638920718F087E09D
S113061090E01FC0833C910518F086E090E019C07B
S11306208136910518F085E090E013C08033910580
S113063018F084E090E00DC08831910518F083E053
S113064090E007C00C9718F082E090E002C080E0D0
S113065090E0782F7770887D872B886D992786B9ED
S11306608E2F99278FBF0895982F969596959695D6
S1130670E7E3F9E0E90FF11D877021E030E002C003
S1130680220F331F8A95E2F78081822399270895E8
S113069061EE80E00E94D6016091FA0889E00E9430
S11306A0D6018AEF90E0019701960197E1F76091F6
S11306B031098BE00E94D60184E190E00197019614
S11306C00197E1F70895E0911901F0911A0185A1CC
S11306D09927982F882726A13327822B932BCC96F2
S11306E020911C0130911D0147A18217930710F43A
S11306F0426001C04D7F47A385E00E940E0285E061
S113070080933B010895EF920F931F93AE2D99E0D0
S1130710899FF0011124E85CF64F40835183628382
S113072073830483158326833783A17080858E7F2A
S11307308A2B8260808789E00E940E021F910F91AC
S1130740EF9008957FB7F89462B720913D013091FE
S11307503E0140913F015091400106B601FE0FC099
S113076081B792B7280F311D411D511D2F5F3F4F97
S11307704F4F5F4F290F311D411D511D04C0260FDE
S1130780311D411D511D872F99278FBFCA01B90102
S113079008950F931F93CF93DF938C01FC01A6EF71
S11307A0B1E02CE10D9001922150E1F72091360146
S11307B03091370121153105E9F0C0912401D09120
S11307C0250181E090E046EF51E009C00196DA018D
S11307D0FA017C966CE101900D926150E1F7445E60
S11307E05F4F8C179D0790F32150304030933701B1
S11307F020933601C801DF91CF911F910F91089585
S1130800CF93DF93CDB7DEB7209136013091370116
S1130810809124019091250128173907C0F48CE1B7
S113082090E0289FF001299FF00D389FF00D1124CE
S1130830EA50FE4FDE0115968CE10D900192815035
S1130840E1F72F5F3F4F3093370120933601DF915B
S1130850CF910895AF92BF92CF92DF92EF920F9310
S11308601F935B016C010E94A203AB01BC01B1E0C8
S1130870EB2E9601850180E00E9483031F910F9166
S1130880EF90DF90CF90BF90AF90089580913001AA
S1130890843061F1853019F1813081F5809140090E
S11308A081FD2CC090E08091C2018F3108F091E06D
S11308B0992381F08091C5019091C601892B29F477
S11308C060E07AE080E090E00EC06EE170E080E0ED
S11308D090E009C060E870E080E090E004C061E06E
S11308E070E080E090E00E942A0408956091C501C0
S11308F07091C601882799270E942A040895DF92DF
S1130900EF92FF920F931F938FB7F894282F3327FA
S1130910D22E91B782B746B7981711F041FF02C0A3
S11309202FBF6AC0809132098823E1F10E94A2039B
S1130930E090240BF090250B0091260B1091270BCF
S11309402091C7013091C8014091C9015091CA0159
S11309506E197F09800B910B621773078407950743
S113096020F01092320971E01EC02E0D3F1D401F71
S1130970511F80913D0190913E01A0913F01B091A2
S11309804001281B390B4A0B5B0B273E31054105FF
S1130990510540F4822F223010F070E005C070E061
S11309A082E002C070E086EE682F615000B601FC60
S11309B0FDCF82B7681709F46F5F20913D01309134
S11309C03E0140913F0150914001DA01C901019675
S11309D0A11DB11D860F911DA11DB11D8217930785
S11309E0A407B50710F4622F609561BFDFBE7723BB
S11309F019F088E00E940E021F910F91FF90EF9072
S1130A00DF900895AFB7F894BB27E1E0E093320993
S1130A106093240B7093250B8093260B9093270BE4
S1130A202093C7013093C8014093C9015093CA0170
S1130A30AFBF0E947F0408956FE380E00E94D60157
S1130A4060E08BE00E94D601089582E080933B0130
S1130A5010925D0910925C090E94FA01BB98BA9841
S1130A6080EC8DB9B898089566EA8EE00E94D601AC
S1130A7095988CE120E030E087FF02C0979A01C08E
S1130A8097989698969A2F5F3F4F2730310511F02B
S1130A90880FF2CF97989698969A8F98959A80E0B7
S1130AA096989927879B04C0880F991F816001C07D
S1130AB0880F969A215030409FEF2F3F390781F7D6
S1130AC0959A8F9A979A83FFD3CF66E28EE00E941D
S1130AD0D60108951F920F920FB60F9211248F938F
S1130AE083B783BF00B600FCFDCF8F910F900FBE7C
S1130AF00F901F90189578941F920F920FB60F9233
S1130B0011240F900FBE0F901F90189578941F9288
S1130B100F920FB60F9211240F900FBE0F901F90DB
S1130B20189578941F920F920FB60F9211240F907C
S1130B300FBE0F901F90189578941F920F920FB6C6
S1130B400F9211248F939F9386B597B59F918F91A0
S1130B500F900FBE0F901F90189578941F920F92CC
S1130B600FB60F9211242F933F938F939F932FB718
S1130B70F894332780913509909136090196909322
S1130B803609809335092FBF9F918F913F912F9103
S1130B900F900FBE0F901F901895AF92BF92CF92F7
S1130BA0DF92EF92FF920F931F93FC016383672FF1
S1130BB0772762834183452F552740832683E58227
S1130BC0EF2CFF24E4820783BB24A501B601089619
S1130BD00E9411191F910F91FF90EF90DF90CF9019
S1130BE0BF90AF9008951F920F920FB60F921124E9
S1130BF02F933F934F935F936F937F938F939F9321
S1130C00AF93BF93EF93FF9383B783BF00B600FC0A
S1130C10FDCF81B799270196AA27BB2720913D01D3
S1130C2030913E0140913F0150914001280F391FFE
S1130C304A1F5B1F20933D0130933E0140933F01C7
S1130C405093400178940E947F04FF91EF91BF91EB
S1130C50AF919F918F917F916F915F914F913F9150
S1130C602F910F900FBE0F901F90189580911E0129
S1130C708130A1F480913201813021F486E00E9418
S1130C800E0209C0823051F48091590B80931E01E9
S1130C9083E08093320180E090E0089581E090E069
S1130CA008951F93982F80911B01843051F59093E0
S1130CB01B01809132018823A9F412E010933201C0
S1130CC01092590B379A0E94360680911E01882390
S1130CD0D9F081E0809332011092590B379A0E9427
S1130CE0360618C08091590B8823A1F080E00E9439
S1130CF03403882379F4809137098160809337091C
S1130D0009C09093280C06C010932F091092260C4A
S1130D100E94BE0280E090E01F9108950F931F93FC
S1130D206BE380E00E94D60180ED97E00197019685
S1130D300197E1F769E380E00E94D60188EC90E036
S1130D40019701960197E1F70FB7F89411270E94D4
S1130D5025050FBF1F910F910895CF93DF938FB790
S1130D60F894C82FDD2780913001882309F591E09C
S1130D7090933B0180913A018D7F846080933A0186
S1130D8080911B01843019F085E080931B019093BE
S1130D90300180E00E940E0280911A0C8D7F8093B6
S1130DA01A0CCFBF0E948E0681E00E940E0201C081
S1130DB0CFBF80E090E0DF91CF9108951F93CF9350
S1130DC0DF93FA01422F86836183672F772760833D
S1130DD02FB7F894332780911F01909120012FBFE2
S1130DE08383892F9927828382E285838FB7F8943E
S1130DF0282F332790913A0191FD04C080913B0143
S1130E00882321F42FBF81E090E068C0EF01A5960C
S1130E10926090933A014483F0932E0CE0932D0C4E
S1130E2010A614A613A612A680E881A72FBF1FB789
S1130E30F89480911A0C826080931A0C809130018E
S1130E40843019F482E00E940E0280911A0C80FD15
S1130E500BC00E9435026F7170706F5F7F4F70938B
S1130E60580B6093570B06C081E090E09093580BA9
S1130E708093570B888129819927782F66273327F8
S1130E80622B732B77FD05C06091C5017091C6017B
S1130E9002C060957095198218826115710529F454
S1130EA066E070E080E090E010C08827992726E68D
S1130EB032E040E050E00E948518672F782F892F98
S1130EC099276A5E7F4F8F4F9F4F7093220C6093D8
S1130ED0210C812F99278FBF80E090E0DF91CF9183
S1130EE01F910895AF92BF92CF92DF92EF92FF923B
S1130EF00F931F9380915B0981FD19C00E943502F5
S1130F007B018C010E94A2035B016C01C70168ECA8
S1130F1070E00E94A4184496AA27BB2711E0E12E92
S1130F208C019D01B601A50183E00E9483031F91FA
S1130F300F91FF90EF90DF90CF90BF90AF90089506
S1130F40CF93DF93CDB7DEB7C056D0400FB6F89439
S1130F50DEBF0FBECDBFDE011196FE01EB59FF4F80
S1130F608CE101900D928150E1F7CF57DF4F8881DA
S1130F709981C158D04098A38F8FDE019196FE01CC
S1130F80319680E201900D928150E1F7DE01AF5B72
S1130F90BF4FFE01B19680E201900D928150E1F7BE
S1130FA020913401309135018091220190912301E7
S1130FB028173907B0F4F90185E0EE0FFF1F8A9571
S1130FC0E1F7E05AF64FDE01AF5BBF4F80E20D90D0
S1130FD001928150E1F72F5F3F4F30933501209309
S1130FE034010E94720780E090E0C05ADF4F0FB6D0
S1130FF0F894DEBF0FBECDBFDF91CF9108951F934C
S1131000CF93DF93182FEB01E82FFF27EE0FFF1F7D
S1131010ED5CF64F1182108210922101E0913309A8
S1131020F0913409309721F08091270C80FF11C092
S113103081E08093210103C08CE00E940E02112301
S1131040C9F4C852DB40B1F4109233010E94720714
S113105011C02481332760817727762F6627818109
S11310609927682B792BAF0186810E94DE0688239D
S113107031F3E2CFDF91CF911F9108951F920F9228
S11310800FB60F921124EF92FF920F931F932F9399
S11310903F934F935F936F937F938F939F93AF93FC
S11310A0BF93CF93DF93EF93FF93C4B1D5B17894FB
S11310B08FB7F89499272091F501322F3695317026
S11310C021708FBF222309F022C1339880912F0908
S11310D0813021F0823009F04EC10AC0332351F02F
S11310E0D0935F09C0935E0987E00E940E0243C15A
S11310F0332319F40E94BE023EC110922F0980913D
S1131100260C882309F037C1EFB6F89480911B01AF
S1131110813089F0813030F08230B1F0833009F0D1
S11311209CC056C0E0911901F0911A01C6A38D2FFD
S1131130992785A392C0D093F808C093F70883E059
S11311400E940E0282E069C02091200C2F5F209340
S1131150200C80911C0190911D010C968C179D0709
S113116040F48091F6088F5F8093F608882339F461
S113117002C01092F60880911A0C80FF18C083E018
S11311808093300187E080933B0110925D091092B7
S11311905C091092C4011092C3018AEA8093C101D0
S11311A08093290C0E944803BB9ABA9A56C02530F2
S11311B059F40E9435026F7070706F5F7F4F7093A7
S11311C0580B6093570B49C082E00E94510645C0FA
S11311D080911C0190911D019C01369527953695AF
S11311E02795821B930B8C179D07D0F482E00E94F5
S11311F00E0280911C0190911D019C0143E03695E3
S113120027954A95E1F7820F931FC817D90728F548
S1131210D093F808C093F70883E00E940E021DC023
S11312208091200C8F5F8093200C8150863060F079
S113123085E080931B0181E08093300180E00E946F
S11312400E020E94250509C083E00E94510680E534
S113125090E0019701960197E1F78091280C809323
S11312601B01843059F084E08093280C82E0809341
S11312702F091092260C0E94BE0245C080913201B3
S1131280833009F040C080911E018823E1F58091EC
S11312903709882309F069C061C0EF2DE695E6950A
S11312A0E695FF274F2D5527E95CF64F9A012770E5
S11312B0307081E090E002C0880F991F2A95E2F710
S11312C08095208128232083C093310111C0219669
S11312D0C130D10511F4C0E0D0E0FC2E8C2F0E9467
S11312E034038823D1F6C017D10789F74FEF50E0B4
S11312F04093590B8FEF80931E0181E0809332015C
S113130086E00E940E028E2D99278FBF34C08FB7BE
S1131310F89499278FBF2FB7F894332786B1582FA5
S11313205770482F4072987D942B952B8074977B2F
S1131330982B90619F77892F992786B9887D842B74
S1131340852B87738061992786B9887D842B852BAB
S1131350877B8069992786B92FBF0DC081E0809370
S11313601E01109232013798CECF80913101082F9F
S11313701127E801ACCFFF91EF91DF91CF91BF919D
S1131380AF919F918F917F916F915F914F913F9119
S11313902F911F910F91FF90EF900F900FBE0F9020
S11313A01F90189580913001823069F480911B015F
S11313B0843019F085E080931B0181E08093300133
S11313C080E00E940E0208951F920F920FB60F92B2
S11313D011246F927F928F929F92AF92BF92CF927D
S11313E0DF92EF92FF920F931F932F933F934F93AC
S11313F05F936F937F938F939F93AF93BF93CF9399
S1131400DF93EF93FF931FB18091290C8FB9609103
S11314103A0162FD109580913B01883009F444C083
S1131420893098F4843009F451C2853038F482301C
S113143009F470C1833009F01AC3B7C1863009F4C6
S1131440E6C2873009F013C315C08B3009F4DBC042
S11314508C3030F48930A9F18A3009F008C3C5C052
S11314608D3009F40FC18D3008F4ECC08E3009F0D2
S1131470FEC23AC18091C1018093290C80915C091C
S113148090915D09019690935D0980935C09209188
S1131490210C3091220C8217930708F4E8C283E3ED
S11314A08093C10188E0E1C28091C1018093290C3D
S11314B08CEC8093C10189E080933B018FEF9FEF17
S11314C052C2C0912D0CD0912E0C2091C1012093B9
S11314D0290C80915C0990915D09019690935D09B6
S11314E080935C092C3C09F05CC00E94AF013B0175
S11314F04C01E0912D0CF0912E0C64A7BB27A92D73
S1131500982D872D83A7C401AA27BB2782A7892DDD
S11315109927AA27BB2781A7E0912D0CF0912E0CC7
S113152080A58823F1F184818D5FE80FF11D20816E
S1131530E1808281A3809927AA27BB27BA2FA92FEC
S1131540982F8827332744275527522F442733279A
S11315502227FF24002711278701FF24EE242E29A8
S11315603F29402B512BBB24CC24DD242A293B29A1
S11315704C295D29822B932BA42BB52B8619970913
S1131580A809B9098383292F3A2F4B2F5527228382
S11315909D014427552721838B2F9927AA27BB27F1
S11315A08083E0915C09F0915D098C81992707960D
S11315B0E817F907A0F480912D0C90912E0CE80FF8
S11315C0F91F60816093C1018091C3019091C401AE
S11315D00E94C8019093C4018093C30148C28091C2
S11315E0C3018093C1018AE040C28091C10180930C
S11315F0290C8091C3019091C401892F992780936C
S1131600C1018BE013C08091C1018093290C8091AA
S11316105C0990915D09019690935D0980935C0942
S1131620049708F424C260FF08C08CE080933B0157
S113163010925D0910925C091AC2BB98BA980E9474
S1131640FA0112C28091C1018093290C80915C0936
S113165090915D09019690935D0980935C098130B6
S1131660910529F4BB98BA980E94FA0100C2049724
S113167008F4FDC18DE080933B0110922B0C109275
S11316802A0CD6CF8091C1018093290C80915C09EA
S113169090915D09019690935D0980935C09809116
S11316A02A0C90912B0C20E0880F991F17FD816064
S11316B03AEB8338930709F4CCC12F5F283011F03B
S11316C0110FF2CF90932B0C80932A0C80915C091C
S11316D090915D09429708F4CAC1E0912D0CF091F4
S11316E02E0C87A18E7FBFC184E00E940E028091E0
S11316F01A0C8D7F80931A0C80911B01843019F091
S113170085E080931B0181E08093300180E00E949A
S11317100E02ADC11A3A19F0153509F094C1809141
S11317205C0990915D09019690935D0980935C0931
S1131730039758F083E080933B0110925D09109267
S11317405C0910922B0C10922A0C91E080911A0CD7
S113175081FF8DC180FD0DC0992359F00E9435028F
S11317606F7070706F5F7F4F7093580B6093570B5F
S11317707EC18091570B9091580B009709F477C163
S113178001979093580B8093570B892B09F06FC1E5
S113179080911B01843019F085E080931B01109225
S11317A0200C82E00E94510662C11A3A11F01535EC
S11317B029F4812F9927982F882714C080915C09D8
S11317C090915D09019690935D0980935C09813045
S11317D0910569F4212F332780912A0C90912B0CC9
S11317E0822B932B90932B0C80932A0C40C1079748
S11317F008F06AC00E94AF013B014C01C0912A0C61
S1131800D0912B0C9C2F8827212F3327822B932BAD
S113181090932B0C80932A0C07E0CC0FDD1F17FD4F
S1131820C16083E3CC3CD80709F048C0E0911901BA
S1131830F0911A0184E080933B018CE1848310923F
S11318405D0910925C091092C4011092C301809149
S11318501B01843019F085E080931B0182E08093A2
S11318603001802F8770880F880F880FE0913A012C
S1131870E77CE82BE0933A01E695E695E695E77078
S1131880FF27E85DFE4F8081681A7108810891087E
S1131890E0911901F0911A0164A6BB27A92D982D96
S11318A0872D83A7C401AA27BB2782A7892D99273F
S11318B0AA27BB2781A780E00E94510601500F3F51
S11318C009F4D5C0110FA9CF82E0B0CEE09119017F
S11318D0F0911A0144814D3150F082E080933B0134
S11318E010925D0910925C090E94D209C0C08091D7
S11318F02A0C90912B0C982F8827212F3327822B89
S1131900932B90932B0C80932A0C66956695669581
S1131910677002C0969587956A95E2F7BC0180913D
S11319205C0990915D09E80FF91F60834C010894EC
S1131930811C911C90925D0980925C09495F642E20
S113194077246814790450F08091C3019091C40104
S11319500E94C8019093C4018093C3018614970424
S113196039F483E290E090935D0980935C097FC031
S113197035E28316910409F07AC0E0911901F091DF
S11319801A0184A123A140E050E09927982F8827C9
S11319903327822B932B2091C3013091C4018217EA
S11319A0930711F441E050E0242F43A3852F992796
S11319B0482F84A380913A0180FF39C0842F99274E
S11319C0982F88273327822B932B892B81F18081B1
S11319D041812FB7F894332760911F017091200142
S11319E02FBF9927982F88275527842B952B861747
S11319F09707E9F486E080933B0110925D09109209
S1131A005C090E944803BB9ABA9A8AEA19C0E09119
S1131A105C09F0915D093196F0935D09E0935C09EE
S1131A20E031F10538F00E94FA01BB98BA980E949F
S1131A3063031DC0EB30F105D0F0E957FD4F8491ED
S1131A408093290C14C010925D0910925C0990E0F7
S1131A507DCE90932B0C80932A0CE0912D0CF09169
S1131A602E0C87A1816087A38EE080933B01FF91B8
S1131A70EF91DF91CF91BF91AF919F918F917F9122
S1131A806F915F914F913F912F911F910F91FF9013
S1131A90EF90DF90CF90BF90AF909F908F907F900A
S1131AA06F900F900FBE0F901F9018958F929F927A
S1131AB0AF92BF92CF92DF92EF92FF920F931F9358
S1131AC0CF93DF93CDB7DEB7E8970FB6F894DEBFB8
S1131AD00FBECDBF5B016C0188249924E8E3F9E0D3
S1131AE0608561FF5BC12081318142815381E48043
S1131AF0F58006811781D601C501821B930BA40BC7
S1131B00B50B8E159F05A007B10708F447C160FF08
S1131B1003C06D7F608708C02E0D3F1D401F511FFD
S1131B20208331834283538382E0881609F442C0C0
S1131B3093E0891609F42EC1882009F038C18FB7C3
S1131B40F894082F1127F02E809130018430B9F0D9
S1131B508530F9F0813051F590E080913B0183307C
S1131B6009F491E0992311F580911B01843019F057
S1131B7085E080931B0181E00E94510617C085E037
S1131B80809330011092200C69E380E00E94D6011A
S1131B900DC00E94FA0183E00E94510680E590E0A6
S1131BA0019701960197E1F70FBF01C10E94460416
S1131BB0FFBEFDC060913801709139016115710556
S1131BC009F47BC020E030E0A1E4B1E0ED91FD91A7
S1131BD082818F5F82832F5F3F4F26173707B1F7CC
S1131BE0A0902601B090270180912E09C82EDD24F3
S1131BF000E010E0E1E4EE2EE1E0FE2E5AC0F70131
S1131C00A081B181FD018281863008F44CC020E0BE
S1131C1030E0E1E4F1E007C02F5F3F4F8081918124
S1131C2093838283329620173107B1F7B093420130
S1131C30A0934101209138013091390121153105DA
S1131C40A9F041E050E0E1E4F1E006C04F5F5F4FEE
S1131C50828193819183808332964A155B05B0F328
S1131C60215030403093390120933801809130095C
S1131C70803488F4F601E80FF11DE034F10510F02A
S1131C80E054F040EE0FFF1FEC55F54FB183A083F5
S1131C908F5F80933009015010408EEF9FEFE80E64
S1131CA0F91E615070400F5F1F4FE2E0F0E0EE0E4E
S1131CB0FF1E0617170708F4A2CF60911701709151
S1131CC0180142E0A42E30E0C32E31E0D32E21E0EF
S1131CD0E22EF12C00E010E022E030E04FEF5FEF65
S1131CE04E010894811C911CC4010E94CD052091D1
S1131CF036013091370180912401909125012817F4
S1131D00390721F4CE014D960E94C903DE015D9688
S1131D10F4018CE101900D928150E1F78DB79EB7EB
S1131D204C970FB6F8949EBF0FBE8DBFEDB7FEB7AC
S1131D303196DE015D968CE10D9001928150E1F7C0
S1131D400E940004DE015D96FE0131968CE1019053
S1131D500D928150E1F78FEF9FEF9F938F93EDB733
S1131D60FEB77C970FB6F894FEBF0FBEEDBF319659
S1131D70DE015D968CE10D9001928150E1F70E94A5
S1131D80A0078DB79EB7CA960FB6F8949EBF0FBE34
S1131D908DBF0DC08AE00E940E0209C00894811C08
S1131DA0911C399694E08916910409F099CE89E042
S1131DB00E940E02E8960FB6F894DEBF0FBECDBFA8
S1131DC0DF91CF911F910F91FF90EF90DF90CF9013
S1131DD0BF90AF909F908F9008952F923F924F9213
S1131DE05F926F927F928F929F92AF92BF92CF92A7
S1131DF0DF92EF92FF920F931F93CF93DF93CDB7B0
S1131E00DEB7CE5FD0400FB6F894DEBF0FBECDBFB5
S1131E10863009F46EC4873088F48230B1F183309F
S1131E2030F4882341F1813009F0FDC52AC08430A3
S1131E3009F4F5C0853008F015C175C0893009F47E
S1131E40A6C48A3038F4873009F46BC4883009F0AA
S1131E50EAC56AC48B3039F08B3008F4EAC48C309C
S1131E6009F0E1C5ADC58091270C882309F4DBC5D1
S1131E7040E011E082C50FB7F89411270E94460490
S1131E80CCC08FB7F894992732C41FB7F8948091C7
S1131E901A0C81FD06C08091C5019091C601892B61
S1131EA0A1F4809130018450823098F580911B0117
S1131EB0843019F085E080931B0181E08093300128
S1131EC080E00E940E0221E025C090E08091C201D2
S1131ED08F3108F091E09923E1F090E080913B018B
S1131EE0833009F491E09923A1F40E941C0581E058
S1131EF080933B016F98B89AC09880911B018430FD
S1131F0019F085E080931B0184E0809330010E94E6
S1131F10460420E0812F99278FBF222309F483C52B
S1131F200E948E0680C58FB7F89499272091F708F0
S1131F303091F8088FBF80913C01E82FFF27EE0F06
S1131F40FF1FE15DF34F318320838F5F80933C015A
S1131F50893010F010923C018091C2018F3118F445
S1131F608F5F8093C201DE011396EFE2FCE082E111
S1131F7001900D928150E1F760E08E010F5F1F4FD9
S1131F8041E050E0DE011596E52FFF27EE0FFF1F1D
S1131F90E00FF11F2D913C9111978281938182175B
S1131FA0930708F4542F4F5F1296493069F7E52FD1
S1131FB0FF27633041F0EE0FFF1FE00FF11F138284
S1131FC012826F5FDDCF60911C0170911D01882723
S1131FD0992735E0660F771F881F991F3A95D1F727
S1131FE0EE0FFF1FE00FF11F228133814427552795
S1131FF0220F331F441F551F620F731F841F951F29
S11320000FB7F894112722E230E040E050E00E943C
S1132010B81830931D0120931C010FBF04C52FB7BE
S1132020F894332740912D0C50912E0C80913A0155
S11320308D7F80933A0182E080933B0110925D0989
S113204010925C092FBF80912101882309F0EBC411
S113205060913309709134096417750709F0E3C47A
S113206040E0B9C48FB7F894282F332780913B01FF
S1132070853011F02FBFD7C48090190190901A01B8
S11320802FBFF401A48184A123A19927982F882725
S11320903327822B932B019709F011C3808141814F
S11320A02FB7F894332760911F01709120012FBF3F
S11320B09927982F88275527842B952B86179707C0
S11320C061F0808121819927982F88273327822BDB
S11320D0932B8F5F9F4F09F0F2C2F4018681863003
S11320E009F0EDC2AC3109F0EAC247E0C42ED12CAC
S11320F0C80CD91C3DE0432E512C480C591C858535
S1132100882309F4DCC26090360170903701AA2458
S1132110BB2426EFE22E21E0F22E91E6292E312C6B
S11321202C0E3D1E8E010B5B1F4F7AC0DE01AF5992
S1132130BF4FF7018CE101900D928150E1F7DE0170
S11321409996F1018CE101900D928150E1F7DE0145
S1132150AB5BBF4FFE01B9968CE101900D928150AB
S1132160E1F7F801B581A481F181C250DF4FF88312
S1132170CE5FD040F801F081C350DF4FF883CD5FCC
S1132180D040F60142816381F80122813327322F46
S1132190222783819927282B392B5527542F44270D
S11321A07727462B572B2417350799F5F60180819D
S11321B06181C350DF4FF881CD5FD0404F2F552749
S11321C0542F4427C250DF4F9881CE5FD040292F2F
S11321D03327422B532B9927982F88277727862B31
S11321E0972B48175907A9F4F601848165814A2F72
S11321F05527542F44272B2F3327422B532B992712
S1132200982F88277727862B972B4817590709F487
S113221056C20894A11CB11C2CE130E0E20EF31E5E
S1132220A614B70409F082CFD9C3809124019091F8
S113223025016816790629F4CE018F599F4F0E9413
S1132240C903DE01AB5BBF4FF6018CE101900D9237
S11322508150E1F78DB79EB74C970FB6F8949EBFA7
S11322600FBE8DBFEDB7FEB73196DE01AB5BBF4F3E
S11322708CE10D9001928150E1F70E940004F60177
S113228087810DB71EB7045E1F4F0FB6F8941EBFAB
S11322900FBE0DBF9927882321F0833609F00FC2A2
S11322A071C0F6014281838108E0E02EF12CCE0C4E
S11322B0DF1C5527542F44279927482B592B60910D
S11322C0170170911801B4E1AB2EEE24FF2401E054
S11322D010E02FE030E08BEC91E00E94CD052091DE
S11322E036013091370180912401909125012817FE
S11322F0390729F4CE018B5B9F4F0E94C903DE018D
S1132300AB5BBF4FEBECF1E08CE101900D9281509F
S1132310E1F70DB71EB70C5110400FB6F8941EBF6D
S11323200FBE0DBFEDB7FEB73196DE01AB5BBF4FFD
S11323308CE10D9001928150E1F70E940004DE01CE
S1132340AB5BBF4FEBECF1E08CE101900D9281505F
S1132350E1F78FEF9FEF9F938F932DB73EB72C51EB
S113236030400FB6F8943EBF0FBE2DBFEDB7FEB799
S11323703196DE01AB5BBF4F8CE10D900192815031
S1132380E1F793C19601285F3F4FF60180858033C2
S113239009F095C1DE0155963A9684E101900D92BB
S11323A08150E1F7F9018181898349815A81405340
S11323B0504050706091170170911801A4E1AA2E49
S11323C0F5E1CF2ED12CCC0EDD1EEE24FF2400E04F
S11323D010E02FE030E08BEC91E00E94CD052091DD
S11323E036013091370180912401909125012817FD
S11323F0390729F4CE018B5B9F4F0E94C903DE018C
S1132400AB5BBF4FEBECF1E08CE101900D9281509E
S1132410E1F70DB71EB70C5110400FB6F8941EBF6C
S11324200FBE0DBFEDB7FEB73196DE01AB5BBF4FFC
S11324308CE10D9001928150E1F70E940004DE01CD
S1132440AB5BBF4FEBECF1E08CE101900D9281505E
S1132450E1F78FEF9FEF9F938F932DB73EB72C51EA
S113246030400FB6F8943EBF0FBE2DBFEDB7FEB798
S11324703196DE01AB5BBF4F8CE10D900192815030
S1132480E1F713C1F6010781FFEF2F16FFEF3F06B7
S113249009F097C01127002321F0013009F00FC182
S11324A024C0F601E48085814281638108E010E064
S11324B0C00ED11EFF24FE2CEE249927E82AF92A07
S11324C0F20120813327215030405527542F4427CF
S11324D07727462B572B94E1A92E01E010E0BD018C
S11324E08BEC91E00E94CD05EAC000913801109177
S11324F03901A0E0B0E081E4E82E81E0F82E1BC0B1
S1132500F701A190B1907F01F50120814181F6018D
S1132510828163813327322F22275527242B352BA1
S11325209927982F88277727862B972B28173907E1
S113253009F444C01196A017B10711F761C2809144
S11325402E09E82FFF27EE0FFF1FEC55F54FA08152
S1132550B181118210829150909330098F5F8093E2
S11325602E09803411F410922E09F6018281238100
S11325709927982F88273327822B932BFD0181835A
S1132580892F99278C931282209138013091390137
S113259080912601909127012817390708F08FC0F0
S11325A0F901EE0FFF1FEF5BFE4FB183A0832F5F96
S11325B03F4F309339012093380181C0F5011282D5
S11325C07EC0F601E48085816281438128E030E0A9
S11325D0C20ED31EFF24FE2CEE249927E82AF92AE2
S11325E01127F20120813327215030407727762F9D
S11325F066275527642B752B84E1A82EA1018BEC4B
S113260091E00E94CD0520913601309137018091EF
S11326102401909125012817390729F4CE018F59F7
S11326209F4F0E94C903DE01AB5BBF4FEBECF1E0AF
S11326308CE101900D928150E1F70DB71EB70C515A
S113264010400FB6F8941EBF0FBE0DBFEDB7FEB716
S11326503196DE01AB5BBF4F8CE10D90019281504E
S1132660E1F70E940004DE01AB5BBF4FEBECF1E04D
S11326708CE101900D928150E1F78FEF9FEF9F93D2
S11326808F932DB73EB72C5130400FB6F8943EBF10
S11326900FBE2DBFEDB7FEB73196DE01AB5BBF4F6A
S11326A08CE10D9001928150E1F70E94A0078DB753
S11326B09EB7CA960FB6F8949EBF0FBE8DBF1FB7C4
S11326C0F8948114910421F090921A0180921901D6
S11326D080913B01853039F482E080933B01109274
S11326E05D0910925C090E94D209812F99278FBF3E
S11326F09AC12FB7F89433278091590B80931E0108
S113270083E0809332012FBF80911E01882309F05A
S11327108AC182E080932F091092260C0E94BE0287
S113272082C110922F097FC18091F401882361F541
S113273020911C0C30911D0C40911E0C50911F0CCB
S1132740EFB7F894FF276091240B7091250B8091CB
S1132750260B9091270BE090C701F090C8010091DF
S1132760C9011091CA016E0D7F1D801F911FEFBF1B
S113277020931C0C30931D0C40931E0C50931F0C83
S11327801092F4010E9402050E94A2033FC00E941D
S1132790A2035B016C018FB7F89499271092320958
S11327A08FBF2FEF3FEF4FEF5FE760E0E8E3F9E023
S11327B0808581FF1CC080819181A281B3818601C3
S11327C07501E81AF90A0A0B1B0BD801C701E4804A
S11327D0F58006811781E81AF90A0A0B1B0BE21629
S11327E0F306040715071CF4A801970161E0399664
S11327F009E0EC35F007E1F6662309F414C112167A
S11328001306140615062CF0C601B5010E94560DD8
S11328100AC120931C0C30931D0C40931E0C509342
S11328201F0C81E08093F401C601B5010E940205EA
S1132830FAC08091340190913501892B09F4F3C0D9
S1132840E7C0DE01A352BF4FE0E6F9E080E2019069
S11328500D928150E1F741E050E080E699E060910B
S11328602201709123010AC04F5F5F4FDC01FC011C
S1132870B09620E201900D922150E1F78096461720
S1132880570790F38091340190913501019790930B
S1132890350180933401DE01A354BF4FFE01E3529E
S11328A0FF4F80E201900D928150E1F7DE01A358C1
S11328B0BF4FFE01E354FF4F80E201900D9281501F
S11328C0E1F7DE01A356BF4FFE01E358FF4F80E25C
S11328D001900D928150E1F7FE01E356FF4F268DE2
S11328E0378D80913301882309F03FC0AFE2BBE00C
S11328F08CE101900D928150E1F748E25BE0209376
S1132900290B632F77276093280B86E080932E0B87
S11329108091330990913409892B39F55093340906
S1132920409333098CE180932C0B809121018823FF
S1132930C9F0762F6627822F9927682B792B10925E
S113294021012CE186E00E94DE069927282F8823A6
S113295049F081E0809321011092340910923309E7
S1132960222319F481E08093330180913401909102
S11329703501892B09F457C050C09091270C812F41
S11329808923C9F0E42FFF27EE0FFF1FED5CF64FFC
S11329902081318111821082812F80959823909318
S11329A0270C442341F428523B40D1F510923301C3
S11329B00E94720735C04F5F4830A8F5110FDDCF74
S11329C080912101E82FFF27EE0FFF1FED5CF64FEA
S11329D06081718141E00E94FF0725C0A091170129
S11329E0B0911801F601808121819927382E222483
S11329F03327222A332AA215B30509F043CD15CC77
S1132A0090913009992309F09ACDA0E0B0E0ADCDC2
S1132A1080913301882309F414CF0E94720703C004
S1132A20110F41E0AACFC250DF4F0FB6F894DEBFBA
S1132A300FBECDBFDF91CF911F910F91FF90EF900B
S1132A40DF90CF90BF90AF909F908F907F906F90CA
S1132A505F904F903F902F9008958091230C8F3F6B
S1132A60B1F0282F3327F901E951FE4F808180937B
S1132A70230C8F3F11F480932C0C8FEF80832F3F16
S1132A8031F0822F0E94ED0E81E090E0089580E005
S1132A9090E00895EF920F931F93CF93DF93EFB6D7
S1132AA0F8944DE050E06FEF70E087EE91E00E9403
S1132AB01A198FEF8093230C80932C0C81E08EBD28
S1132AC088E080BF83E083BF8CB59DB54AE72CB511
S1132AD03DB52817390708F44150442311F0C901C2
S1132AE0F6CF92B782B78917E9F32CB53DB592B703
S1132AF082B78917E9F38CB59DB5821B930B409679
S1132B00B5E096958795BA95E1F79093250C809357
S1132B10240C13BE83B78EBD8EB580BF12BE1DBC00
S1132B201CBC8FEF86BF86B780937C0080B7992743
S1132B3087709070892BD1F780EB85BB8FEF84BBB6
S1132B4080E288BB87BB1DBC1CBC87B7846087BF81
S1132B508EB5887F84608EBD16B817988D9A8E9A2C
S1132B608F9A959A979A969A6FE380E00E94D6017D
S1132B7060E08BE00E94D601B998BB98BA980E9495
S1132B802D158823E1F7E4EAFAE08AE59BE08193D6
S1132B90919303962BE0E432F207C9F780E4809323
S1132BA0300910922E0980B7886080BF8BE083BF04
S1132BB086EE81BF87B7826087BF0E947F048091C1
S1132BC01701909118010196AA27BB2780932A091F
S1132BD090932B09A0932C09B0932D0910923709D7
S1132BE080913A01816080933A016B986A986F9A58
S1132BF06E9A6AE380E00E94D6016BE380E00E9453
S1132C00D60180ED97E0019701960197E1F780E8FE
S1132C108093310960E88BE00E94D60160E984E08A
S1132C200E94D60160E08FE00E94D6016FE680E149
S1132C300E94D60165E581E10E94D60161E083E14D
S1132C400E94D601C1E0D0E000EC12E0F8016491EA
S1132C508C2F0E94D60121960F5F1F4FCD30D105D6
S1132C60A9F701ED12E0F801649182E10E94D60116
S1132C7009501040F801849180931B0C065F1F4F8C
S1132C80F80184918093FA0808501040F801849167
S1132C908093310960E08BE00E94D6016FE382E407
S1132CA00E94D60161E180E00E94D6010E943405B1
S1132CB061EE80E00E94D6016091FA0889E00E94EA
S1132CC0D60160E08BE00E94D6010E9434050E9488
S1132CD0FA010E941C05EFE2FCE080E291E081939E
S1132CE091932CE0E134F207D1F70E942D1588234B
S1132CF0E1F78E2D99278FBF78940E94AD060E942C
S1132D00350224E630E040E050E00E94B818AB0100
S1132D10BC014093A00A5093A10A6093A20A709345
S1132D20A30AEE2400EE1EE220E030E082E00E94DE
S1132D3083038FB7F894482F55274BC087B799273B
S1132D4083709070892B19F4E5E0F0E013C080B72C
S1132D50992787709070892BD1F781B792B7891B17
S1132D608C3030F082B7853F18F4E3E0F0E002C025
S1132D70E2E0F0E087B7887BC1F480917D008B7F2F
S1132D80A1F46E9912C08AB190919A00892B88712E
S1132D9061F48091740082FD08C0379B03C081E018
S1132DA090E005C085E090E002C080E090E025B7A7
S1132DB08E1708F4E82FFF27E457FD4FE491237E94
S1132DC02062E22BE5BF78948895F89485B78F7DCF
S1132DD085BF8091230C8F3F09F4B0CF282F332770
S1132DE0F901E951FE4F80818093230C8F3F11F448
S1132DF080932C0C8FEF80832F3F09F49FCF4FBF1C
S1132E00822F0E94ED0E95CFACE2B0E0EAE0F7E14C
S1132E100C94DA18222E332E442E552E662E772E3D
S1132E20882E992EFE013196A8E01192AA95E9F711
S1132E3029823A824B825C826D827E828F8298865E
S1132E40FE013996B8E01192BA95E9F7A986BA86D7
S1132E50CB86DC86ED86FE860F87188B89819A8166
S1132E60AB81BC8189A79AA7ABA7BCA77C018D01C4
S1132E708FEF9FEFA0E0B0E0E822F9220A231B23A2
S1132E8089A59AA5ABA5BCA51D0144245524898513
S1132E909A85AB85BC858DA39EA3AFA3B8A75C011F
S1132EA06D018FEF9FEFA0E0B0E0A822B922CA2203
S1132EB0DB228DA19EA1AFA1B8A53D018824992450
S1132EC0C801B701A60195010E94851869A37AA3D8
S1132ED08BA39CA3C801B701A40193010E94851888
S1132EE07B018C01C201B101A60195010E948518E4
S1132EF05B016C01C201B101A40193010E94851818
S1132F003B014C01EA0CFB1C0C1D1D1D89A19AA15F
S1132F10ABA1BCA19D01442755272E0D3F1D401F89
S1132F20511F2A153B054C055D0540F480E090E0F7
S1132F30A1E0B0E0680E791E8A1E9B1ECA01AA2772
S1132F40BB27860D971DA81DB91D8D8F9E8FAF8F32
S1132F50B8A3A9013327222789A19AA1ABA1BCA1B7
S1132F60A070B070280F391F4A1F5B1F298F3A8F3A
S1132F704B8F5C8FA98CBA8CCB8CDC8CED8CFE8C4B
S1132F800F8D18A1FE01719698E011929A95E9F7B8
S1132F90ED8AFE8A0F8B188F2D813E814F815885D3
S1132FA06DA17EA18FA198A50E9485183B014C01BB
S1132FB02D853E854F85588969A57AA58BA59CA545
S1132FC00E9485182D893E894F89588D260F371FF9
S1132FD0481F591F260D371D481D591D2D8B3E8B2B
S1132FE04F8B588F6D887E888F88988C2A2D3B2D27
S1132FF04C2D5D2D662D772D882D992DE2E1AC9613
S11330000C94F618A0E1B0E0E8E0F8E10C94DA18CA
S1133010222E332E442E552E662E772E882E992E50
S1133020002309F466C088E0FE01319611928A9566
S1133030E9F729833A834B835C836D837E838F8294
S11330409887E0E2E01B1E16CCF52D813E814F816E
S11330505885602F772767FD7095DA01C901062E20
S113306004C0B695A795979587950A94D2F78D874E
S11330709E87AF87B88B04C0220F331F441F551F90
S1133080EA95D2F789819A81AB81BC8104C0B69557
S1133090A795979587956A95D2F7282B392B4A2BB4
S11330A05B2B29873A874B875C8729843A844B8436
S11330B05C846D847E848F8498881BC01D861E86E4
S11330C01F86188A2E2F332727FD3095309521959A
S11330D03F4F8D819E81AF81B88504C0B695A79579
S11330E0979587952A95D2F789879A87AB87BC8766
S11330F0DCCF222D332D442D552D662D772D882D93
S1133100992DE2E160960C94F618629FD001739FAA
S1133110F001829FE00DF11D649FE00DF11D929F6F
S1133120F00D839FF00D749FF00D659FF00D9927AE
S1133130729FB00DE11DF91F639FB00DE11DF91FD2
S1133140BD01CF0111240895AA1BBB1B51E107C087
S1133150AA1FBB1FA617B70710F0A61BB70B881F23
S1133160991F5A95A9F780959095BC01CD010895B2
S1133170A1E21A2EAA1BBB1BFD010DC0AA1FBB1F77
S1133180EE1FFF1FA217B307E407F50720F0A21BE9
S1133190B30BE40BF50B661F771F881F991F1A9456
S11331A069F760957095809590959B01AC01BD0180
S11331B0CF0108952F923F924F925F926F927F9228
S11331C08F929F92AF92BF92CF92DF92EF92FF9233
S11331D00F931F93CF93DF93CDB7DEB7CA1BDB0BDF
S11331E00FB6F894DEBF0FBECDBF09942A88398884
S11331F048885F846E847D848C849B84AA84B9848B
S1133200C884DF80EE80FD800C811B81AA81B98196
S1133210CE0FD11D0FB6F894DEBF0FBECDBFED01AA
S11332200895FB01DC0102C001900D924150504011
S1133230D8F70895DC0101C06D9341505040E0F788
S10732400895FFCF1B
S1133244446973636F766572696E67206E65696736
S113325468626F72730A000100FB08042001010113
S113326400010A00400040000000000000000000CB
S9030000FC
